{
  "contractName": "wAKT",
  "abi": [
    {
      "inputs": [
        {
          "internalType": "string",
          "name": "name",
          "type": "string"
        },
        {
          "internalType": "string",
          "name": "symbol",
          "type": "string"
        }
      ],
      "stateMutability": "nonpayable",
      "type": "constructor"
    },
    {
      "anonymous": false,
      "inputs": [
        {
          "indexed": true,
          "internalType": "address",
          "name": "owner",
          "type": "address"
        },
        {
          "indexed": true,
          "internalType": "address",
          "name": "spender",
          "type": "address"
        },
        {
          "indexed": false,
          "internalType": "uint256",
          "name": "value",
          "type": "uint256"
        }
      ],
      "name": "Approval",
      "type": "event"
    },
    {
      "anonymous": false,
      "inputs": [
        {
          "indexed": true,
          "internalType": "address",
          "name": "_sender",
          "type": "address"
        },
        {
          "indexed": true,
          "internalType": "bytes32",
          "name": "_to",
          "type": "bytes32"
        },
        {
          "indexed": false,
          "internalType": "uint256",
          "name": "_amount",
          "type": "uint256"
        }
      ],
      "name": "Burn",
      "type": "event"
    },
    {
      "anonymous": false,
      "inputs": [
        {
          "indexed": true,
          "internalType": "address",
          "name": "previousOwner",
          "type": "address"
        },
        {
          "indexed": true,
          "internalType": "address",
          "name": "newOwner",
          "type": "address"
        }
      ],
      "name": "OwnershipTransferred",
      "type": "event"
    },
    {
      "anonymous": false,
      "inputs": [
        {
          "indexed": true,
          "internalType": "address",
          "name": "from",
          "type": "address"
        },
        {
          "indexed": true,
          "internalType": "address",
          "name": "to",
          "type": "address"
        },
        {
          "indexed": false,
          "internalType": "uint256",
          "name": "value",
          "type": "uint256"
        }
      ],
      "name": "Transfer",
      "type": "event"
    },
    {
      "inputs": [
        {
          "internalType": "address",
          "name": "owner",
          "type": "address"
        },
        {
          "internalType": "address",
          "name": "spender",
          "type": "address"
        }
      ],
      "name": "allowance",
      "outputs": [
        {
          "internalType": "uint256",
          "name": "",
          "type": "uint256"
        }
      ],
      "stateMutability": "view",
      "type": "function"
    },
    {
      "inputs": [
        {
          "internalType": "address",
          "name": "spender",
          "type": "address"
        },
        {
          "internalType": "uint256",
          "name": "amount",
          "type": "uint256"
        }
      ],
      "name": "approve",
      "outputs": [
        {
          "internalType": "bool",
          "name": "",
          "type": "bool"
        }
      ],
      "stateMutability": "nonpayable",
      "type": "function"
    },
    {
      "inputs": [
        {
          "internalType": "address",
          "name": "account",
          "type": "address"
        }
      ],
      "name": "balanceOf",
      "outputs": [
        {
          "internalType": "uint256",
          "name": "",
          "type": "uint256"
        }
      ],
      "stateMutability": "view",
      "type": "function"
    },
    {
      "inputs": [],
      "name": "decimals",
      "outputs": [
        {
          "internalType": "uint8",
          "name": "",
          "type": "uint8"
        }
      ],
      "stateMutability": "view",
      "type": "function"
    },
    {
      "inputs": [
        {
          "internalType": "address",
          "name": "spender",
          "type": "address"
        },
        {
          "internalType": "uint256",
          "name": "subtractedValue",
          "type": "uint256"
        }
      ],
      "name": "decreaseAllowance",
      "outputs": [
        {
          "internalType": "bool",
          "name": "",
          "type": "bool"
        }
      ],
      "stateMutability": "nonpayable",
      "type": "function"
    },
    {
      "inputs": [
        {
          "internalType": "address",
          "name": "spender",
          "type": "address"
        },
        {
          "internalType": "uint256",
          "name": "addedValue",
          "type": "uint256"
        }
      ],
      "name": "increaseAllowance",
      "outputs": [
        {
          "internalType": "bool",
          "name": "",
          "type": "bool"
        }
      ],
      "stateMutability": "nonpayable",
      "type": "function"
    },
    {
      "inputs": [],
      "name": "name",
      "outputs": [
        {
          "internalType": "string",
          "name": "",
          "type": "string"
        }
      ],
      "stateMutability": "view",
      "type": "function"
    },
    {
      "inputs": [],
      "name": "owner",
      "outputs": [
        {
          "internalType": "address",
          "name": "",
          "type": "address"
        }
      ],
      "stateMutability": "view",
      "type": "function"
    },
    {
      "inputs": [],
      "name": "renounceOwnership",
      "outputs": [],
      "stateMutability": "nonpayable",
      "type": "function"
    },
    {
      "inputs": [],
      "name": "symbol",
      "outputs": [
        {
          "internalType": "string",
          "name": "",
          "type": "string"
        }
      ],
      "stateMutability": "view",
      "type": "function"
    },
    {
      "inputs": [],
      "name": "totalSupply",
      "outputs": [
        {
          "internalType": "uint256",
          "name": "",
          "type": "uint256"
        }
      ],
      "stateMutability": "view",
      "type": "function"
    },
    {
      "inputs": [
        {
          "internalType": "address",
          "name": "recipient",
          "type": "address"
        },
        {
          "internalType": "uint256",
          "name": "amount",
          "type": "uint256"
        }
      ],
      "name": "transfer",
      "outputs": [
        {
          "internalType": "bool",
          "name": "",
          "type": "bool"
        }
      ],
      "stateMutability": "nonpayable",
      "type": "function"
    },
    {
      "inputs": [
        {
          "internalType": "address",
          "name": "sender",
          "type": "address"
        },
        {
          "internalType": "address",
          "name": "recipient",
          "type": "address"
        },
        {
          "internalType": "uint256",
          "name": "amount",
          "type": "uint256"
        }
      ],
      "name": "transferFrom",
      "outputs": [
        {
          "internalType": "bool",
          "name": "",
          "type": "bool"
        }
      ],
      "stateMutability": "nonpayable",
      "type": "function"
    },
    {
      "inputs": [
        {
          "internalType": "address",
          "name": "newOwner",
          "type": "address"
        }
      ],
      "name": "transferOwnership",
      "outputs": [],
      "stateMutability": "nonpayable",
      "type": "function"
    },
    {
      "inputs": [
        {
          "internalType": "uint256",
          "name": "amount",
          "type": "uint256"
        },
        {
          "internalType": "bytes32",
          "name": "to",
          "type": "bytes32"
        }
      ],
      "name": "burn",
      "outputs": [],
      "stateMutability": "nonpayable",
      "type": "function"
    },
    {
      "inputs": [
        {
          "internalType": "address",
          "name": "account",
          "type": "address"
        },
        {
          "internalType": "uint256",
          "name": "amount",
          "type": "uint256"
        }
      ],
      "name": "mint",
      "outputs": [],
      "stateMutability": "nonpayable",
      "type": "function"
    }
  ],
  "bytecode": "0x60806040523480156200001157600080fd5b506040516200227538038062002275833981810160405281019062000037919062000250565b81818160039080519060200190620000519291906200012e565b5080600490805190602001906200006a9291906200012e565b50505060006200007f6200012660201b60201c565b905080600560006101000a81548173ffffffffffffffffffffffffffffffffffffffff021916908373ffffffffffffffffffffffffffffffffffffffff1602179055508073ffffffffffffffffffffffffffffffffffffffff16600073ffffffffffffffffffffffffffffffffffffffff167f8be0079c531659141344cd1fd0a4f28419497f9722a3daafe3b4186f6b6457e060405160405180910390a3505050620003f4565b600033905090565b8280546200013c9062000360565b90600052602060002090601f016020900481019282620001605760008555620001ac565b82601f106200017b57805160ff1916838001178555620001ac565b82800160010185558215620001ac579182015b82811115620001ab5782518255916020019190600101906200018e565b5b509050620001bb9190620001bf565b5090565b5b80821115620001da576000816000905550600101620001c0565b5090565b6000620001f5620001ef84620002f7565b620002c3565b9050828152602081018484840111156200020e57600080fd5b6200021b8482856200032a565b509392505050565b600082601f8301126200023557600080fd5b815162000247848260208601620001de565b91505092915050565b600080604083850312156200026457600080fd5b600083015167ffffffffffffffff8111156200027f57600080fd5b6200028d8582860162000223565b925050602083015167ffffffffffffffff811115620002ab57600080fd5b620002b98582860162000223565b9150509250929050565b6000604051905081810181811067ffffffffffffffff82111715620002ed57620002ec620003c5565b5b8060405250919050565b600067ffffffffffffffff821115620003155762000314620003c5565b5b601f19601f8301169050602081019050919050565b60005b838110156200034a5780820151818401526020810190506200032d565b838111156200035a576000848401525b50505050565b600060028204905060018216806200037957607f821691505b6020821081141562000390576200038f62000396565b5b50919050565b7f4e487b7100000000000000000000000000000000000000000000000000000000600052602260045260246000fd5b7f4e487b7100000000000000000000000000000000000000000000000000000000600052604160045260246000fd5b611e7180620004046000396000f3fe608060405234801561001057600080fd5b50600436106101005760003560e01c8063715018a611610097578063a9059cbb11610066578063a9059cbb146102b1578063bcf64e05146102e1578063dd62ed3e146102fd578063f2fde38b1461032d57610100565b8063715018a61461023b5780638da5cb5b1461024557806395d89b4114610263578063a457c2d71461028157610100565b8063313ce567116100d3578063313ce567146101a157806339509351146101bf57806340c10f19146101ef57806370a082311461020b57610100565b806306fdde0314610105578063095ea7b31461012357806318160ddd1461015357806323b872dd14610171575b600080fd5b61010d610349565b60405161011a9190611a45565b60405180910390f35b61013d600480360381019061013891906114a6565b6103db565b60405161014a9190611a2a565b60405180910390f35b61015b6103f9565b6040516101689190611be7565b60405180910390f35b61018b60048036038101906101869190611457565b610403565b6040516101989190611a2a565b60405180910390f35b6101a9610504565b6040516101b69190611c02565b60405180910390f35b6101d960048036038101906101d491906114a6565b61050d565b6040516101e69190611a2a565b60405180910390f35b610209600480360381019061020491906114a6565b6105b9565b005b610225600480360381019061022091906113f2565b610643565b6040516102329190611be7565b60405180910390f35b61024361068b565b005b61024d6107c8565b60405161025a9190611a0f565b60405180910390f35b61026b6107f2565b6040516102789190611a45565b60405180910390f35b61029b600480360381019061029691906114a6565b610884565b6040516102a89190611a2a565b60405180910390f35b6102cb60048036038101906102c691906114a6565b610978565b6040516102d89190611a2a565b60405180910390f35b6102fb60048036038101906102f691906114e2565b610996565b005b6103176004803603810190610312919061141b565b610a01565b6040516103249190611be7565b60405180910390f35b610347600480360381019061034291906113f2565b610a88565b005b60606003805461035890611d55565b80601f016020809104026020016040519081016040528092919081815260200182805461038490611d55565b80156103d15780601f106103a6576101008083540402835291602001916103d1565b820191906000526020600020905b8154815290600101906020018083116103b457829003601f168201915b5050505050905090565b60006103ef6103e8610c34565b8484610c3c565b6001905092915050565b6000600254905090565b6000610410848484610e07565b6000600160008673ffffffffffffffffffffffffffffffffffffffff1673ffffffffffffffffffffffffffffffffffffffff168152602001908152602001600020600061045b610c34565b73ffffffffffffffffffffffffffffffffffffffff1673ffffffffffffffffffffffffffffffffffffffff168152602001908152602001600020549050828110156104db576040517f08c379a00000000000000000000000000000000000000000000000000000000081526004016104d290611b07565b60405180910390fd5b6104f8856104e7610c34565b85846104f39190611c8f565b610c3c565b60019150509392505050565b60006012905090565b60006105af61051a610c34565b848460016000610528610c34565b73ffffffffffffffffffffffffffffffffffffffff1673ffffffffffffffffffffffffffffffffffffffff16815260200190815260200160002060008873ffffffffffffffffffffffffffffffffffffffff1673ffffffffffffffffffffffffffffffffffffffff168152602001908152602001600020546105aa9190611c39565b610c3c565b6001905092915050565b6105c1610c34565b73ffffffffffffffffffffffffffffffffffffffff166105df6107c8565b73ffffffffffffffffffffffffffffffffffffffff1614610635576040517f08c379a000000000000000000000000000000000000000000000000000000000815260040161062c90611b27565b60405180910390fd5b61063f8282611086565b5050565b60008060008373ffffffffffffffffffffffffffffffffffffffff1673ffffffffffffffffffffffffffffffffffffffff168152602001908152602001600020549050919050565b610693610c34565b73ffffffffffffffffffffffffffffffffffffffff166106b16107c8565b73ffffffffffffffffffffffffffffffffffffffff1614610707576040517f08c379a00000000000000000000000000000000000000000000000000000000081526004016106fe90611b27565b60405180910390fd5b600073ffffffffffffffffffffffffffffffffffffffff16600560009054906101000a900473ffffffffffffffffffffffffffffffffffffffff1673ffffffffffffffffffffffffffffffffffffffff167f8be0079c531659141344cd1fd0a4f28419497f9722a3daafe3b4186f6b6457e060405160405180910390a36000600560006101000a81548173ffffffffffffffffffffffffffffffffffffffff021916908373ffffffffffffffffffffffffffffffffffffffff160217905550565b6000600560009054906101000a900473ffffffffffffffffffffffffffffffffffffffff16905090565b60606004805461080190611d55565b80601f016020809104026020016040519081016040528092919081815260200182805461082d90611d55565b801561087a5780601f1061084f5761010080835404028352916020019161087a565b820191906000526020600020905b81548152906001019060200180831161085d57829003601f168201915b5050505050905090565b60008060016000610893610c34565b73ffffffffffffffffffffffffffffffffffffffff1673ffffffffffffffffffffffffffffffffffffffff16815260200190815260200160002060008573ffffffffffffffffffffffffffffffffffffffff1673ffffffffffffffffffffffffffffffffffffffff16815260200190815260200160002054905082811015610950576040517f08c379a000000000000000000000000000000000000000000000000000000000815260040161094790611ba7565b60405180910390fd5b61096d61095b610c34565b8585846109689190611c8f565b610c3c565b600191505092915050565b600061098c610985610c34565b8484610e07565b6001905092915050565b6109a76109a1610c34565b836111da565b806109b0610c34565b73ffffffffffffffffffffffffffffffffffffffff167fc3599666213715dfabdf658c56a97b9adfad2cd9689690c70c79b20bc61940c9846040516109f59190611be7565b60405180910390a35050565b6000600160008473ffffffffffffffffffffffffffffffffffffffff1673ffffffffffffffffffffffffffffffffffffffff16815260200190815260200160002060008373ffffffffffffffffffffffffffffffffffffffff1673ffffffffffffffffffffffffffffffffffffffff16815260200190815260200160002054905092915050565b610a90610c34565b73ffffffffffffffffffffffffffffffffffffffff16610aae6107c8565b73ffffffffffffffffffffffffffffffffffffffff1614610b04576040517f08c379a0000000000000000000000000000000000000000000000000000000008152600401610afb90611b27565b60405180910390fd5b600073ffffffffffffffffffffffffffffffffffffffff168173ffffffffffffffffffffffffffffffffffffffff161415610b74576040517f08c379a0000000000000000000000000000000000000000000000000000000008152600401610b6b90611aa7565b60405180910390fd5b8073ffffffffffffffffffffffffffffffffffffffff16600560009054906101000a900473ffffffffffffffffffffffffffffffffffffffff1673ffffffffffffffffffffffffffffffffffffffff167f8be0079c531659141344cd1fd0a4f28419497f9722a3daafe3b4186f6b6457e060405160405180910390a380600560006101000a81548173ffffffffffffffffffffffffffffffffffffffff021916908373ffffffffffffffffffffffffffffffffffffffff16021790555050565b600033905090565b600073ffffffffffffffffffffffffffffffffffffffff168373ffffffffffffffffffffffffffffffffffffffff161415610cac576040517f08c379a0000000000000000000000000000000000000000000000000000000008152600401610ca390611b87565b60405180910390fd5b600073ffffffffffffffffffffffffffffffffffffffff168273ffffffffffffffffffffffffffffffffffffffff161415610d1c576040517f08c379a0000000000000000000000000000000000000000000000000000000008152600401610d1390611ac7565b60405180910390fd5b80600160008573ffffffffffffffffffffffffffffffffffffffff1673ffffffffffffffffffffffffffffffffffffffff16815260200190815260200160002060008473ffffffffffffffffffffffffffffffffffffffff1673ffffffffffffffffffffffffffffffffffffffff168152602001908152602001600020819055508173ffffffffffffffffffffffffffffffffffffffff168373ffffffffffffffffffffffffffffffffffffffff167f8c5be1e5ebec7d5bd14f71427d1e84f3dd0314c0f7b2291e5b200ac8c7c3b92583604051610dfa9190611be7565b60405180910390a3505050565b600073ffffffffffffffffffffffffffffffffffffffff168373ffffffffffffffffffffffffffffffffffffffff161415610e77576040517f08c379a0000000000000000000000000000000000000000000000000000000008152600401610e6e90611b67565b60405180910390fd5b600073ffffffffffffffffffffffffffffffffffffffff168273ffffffffffffffffffffffffffffffffffffffff161415610ee7576040517f08c379a0000000000000000000000000000000000000000000000000000000008152600401610ede90611a67565b60405180910390fd5b610ef28383836113ae565b60008060008573ffffffffffffffffffffffffffffffffffffffff1673ffffffffffffffffffffffffffffffffffffffff16815260200190815260200160002054905081811015610f78576040517f08c379a0000000000000000000000000000000000000000000000000000000008152600401610f6f90611ae7565b60405180910390fd5b8181610f849190611c8f565b6000808673ffffffffffffffffffffffffffffffffffffffff1673ffffffffffffffffffffffffffffffffffffffff16815260200190815260200160002081905550816000808573ffffffffffffffffffffffffffffffffffffffff1673ffffffffffffffffffffffffffffffffffffffff16815260200190815260200160002060008282546110149190611c39565b925050819055508273ffffffffffffffffffffffffffffffffffffffff168473ffffffffffffffffffffffffffffffffffffffff167fddf252ad1be2c89b69c2b068fc378daa952ba7f163c4a11628f55a4df523b3ef846040516110789190611be7565b60405180910390a350505050565b600073ffffffffffffffffffffffffffffffffffffffff168273ffffffffffffffffffffffffffffffffffffffff1614156110f6576040517f08c379a00000000000000000000000000000000000000000000000000000000081526004016110ed90611bc7565b60405180910390fd5b611102600083836113ae565b80600260008282546111149190611c39565b92505081905550806000808473ffffffffffffffffffffffffffffffffffffffff1673ffffffffffffffffffffffffffffffffffffffff16815260200190815260200160002060008282546111699190611c39565b925050819055508173ffffffffffffffffffffffffffffffffffffffff16600073ffffffffffffffffffffffffffffffffffffffff167fddf252ad1be2c89b69c2b068fc378daa952ba7f163c4a11628f55a4df523b3ef836040516111ce9190611be7565b60405180910390a35050565b600073ffffffffffffffffffffffffffffffffffffffff168273ffffffffffffffffffffffffffffffffffffffff16141561124a576040517f08c379a000000000000000000000000000000000000000000000000000000000815260040161124190611b47565b60405180910390fd5b611256826000836113ae565b60008060008473ffffffffffffffffffffffffffffffffffffffff1673ffffffffffffffffffffffffffffffffffffffff168152602001908152602001600020549050818110156112dc576040517f08c379a00000000000000000000000000000000000000000000000000000000081526004016112d390611a87565b60405180910390fd5b81816112e89190611c8f565b6000808573ffffffffffffffffffffffffffffffffffffffff1673ffffffffffffffffffffffffffffffffffffffff16815260200190815260200160002081905550816002600082825461133c9190611c8f565b92505081905550600073ffffffffffffffffffffffffffffffffffffffff168373ffffffffffffffffffffffffffffffffffffffff167fddf252ad1be2c89b69c2b068fc378daa952ba7f163c4a11628f55a4df523b3ef846040516113a19190611be7565b60405180910390a3505050565b505050565b6000813590506113c281611df6565b92915050565b6000813590506113d781611e0d565b92915050565b6000813590506113ec81611e24565b92915050565b60006020828403121561140457600080fd5b6000611412848285016113b3565b91505092915050565b6000806040838503121561142e57600080fd5b600061143c858286016113b3565b925050602061144d858286016113b3565b9150509250929050565b60008060006060848603121561146c57600080fd5b600061147a868287016113b3565b935050602061148b868287016113b3565b925050604061149c868287016113dd565b9150509250925092565b600080604083850312156114b957600080fd5b60006114c7858286016113b3565b92505060206114d8858286016113dd565b9150509250929050565b600080604083850312156114f557600080fd5b6000611503858286016113dd565b9250506020611514858286016113c8565b9150509250929050565b61152781611cc3565b82525050565b61153681611cd5565b82525050565b600061154782611c1d565b6115518185611c28565b9350611561818560208601611d22565b61156a81611de5565b840191505092915050565b6000611582602383611c28565b91507f45524332303a207472616e7366657220746f20746865207a65726f206164647260008301527f65737300000000000000000000000000000000000000000000000000000000006020830152604082019050919050565b60006115e8602283611c28565b91507f45524332303a206275726e20616d6f756e7420657863656564732062616c616e60008301527f63650000000000000000000000000000000000000000000000000000000000006020830152604082019050919050565b600061164e602683611c28565b91507f4f776e61626c653a206e6577206f776e657220697320746865207a65726f206160008301527f64647265737300000000000000000000000000000000000000000000000000006020830152604082019050919050565b60006116b4602283611c28565b91507f45524332303a20617070726f766520746f20746865207a65726f20616464726560008301527f73730000000000000000000000000000000000000000000000000000000000006020830152604082019050919050565b600061171a602683611c28565b91507f45524332303a207472616e7366657220616d6f756e742065786365656473206260008301527f616c616e636500000000000000000000000000000000000000000000000000006020830152604082019050919050565b6000611780602883611c28565b91507f45524332303a207472616e7366657220616d6f756e742065786365656473206160008301527f6c6c6f77616e63650000000000000000000000000000000000000000000000006020830152604082019050919050565b60006117e6602083611c28565b91507f4f776e61626c653a2063616c6c6572206973206e6f7420746865206f776e65726000830152602082019050919050565b6000611826602183611c28565b91507f45524332303a206275726e2066726f6d20746865207a65726f2061646472657360008301527f73000000000000000000000000000000000000000000000000000000000000006020830152604082019050919050565b600061188c602583611c28565b91507f45524332303a207472616e736665722066726f6d20746865207a65726f20616460008301527f64726573730000000000000000000000000000000000000000000000000000006020830152604082019050919050565b60006118f2602483611c28565b91507f45524332303a20617070726f76652066726f6d20746865207a65726f2061646460008301527f72657373000000000000000000000000000000000000000000000000000000006020830152604082019050919050565b6000611958602583611c28565b91507f45524332303a2064656372656173656420616c6c6f77616e63652062656c6f7760008301527f207a65726f0000000000000000000000000000000000000000000000000000006020830152604082019050919050565b60006119be601f83611c28565b91507f45524332303a206d696e7420746f20746865207a65726f2061646472657373006000830152602082019050919050565b6119fa81611d0b565b82525050565b611a0981611d15565b82525050565b6000602082019050611a24600083018461151e565b92915050565b6000602082019050611a3f600083018461152d565b92915050565b60006020820190508181036000830152611a5f818461153c565b905092915050565b60006020820190508181036000830152611a8081611575565b9050919050565b60006020820190508181036000830152611aa0816115db565b9050919050565b60006020820190508181036000830152611ac081611641565b9050919050565b60006020820190508181036000830152611ae0816116a7565b9050919050565b60006020820190508181036000830152611b008161170d565b9050919050565b60006020820190508181036000830152611b2081611773565b9050919050565b60006020820190508181036000830152611b40816117d9565b9050919050565b60006020820190508181036000830152611b6081611819565b9050919050565b60006020820190508181036000830152611b808161187f565b9050919050565b60006020820190508181036000830152611ba0816118e5565b9050919050565b60006020820190508181036000830152611bc08161194b565b9050919050565b60006020820190508181036000830152611be0816119b1565b9050919050565b6000602082019050611bfc60008301846119f1565b92915050565b6000602082019050611c176000830184611a00565b92915050565b600081519050919050565b600082825260208201905092915050565b6000611c4482611d0b565b9150611c4f83611d0b565b9250827fffffffffffffffffffffffffffffffffffffffffffffffffffffffffffffffff03821115611c8457611c83611d87565b5b828201905092915050565b6000611c9a82611d0b565b9150611ca583611d0b565b925082821015611cb857611cb7611d87565b5b828203905092915050565b6000611cce82611ceb565b9050919050565b60008115159050919050565b6000819050919050565b600073ffffffffffffffffffffffffffffffffffffffff82169050919050565b6000819050919050565b600060ff82169050919050565b60005b83811015611d40578082015181840152602081019050611d25565b83811115611d4f576000848401525b50505050565b60006002820490506001821680611d6d57607f821691505b60208210811415611d8157611d80611db6565b5b50919050565b7f4e487b7100000000000000000000000000000000000000000000000000000000600052601160045260246000fd5b7f4e487b7100000000000000000000000000000000000000000000000000000000600052602260045260246000fd5b6000601f19601f8301169050919050565b611dff81611cc3565b8114611e0a57600080fd5b50565b611e1681611ce1565b8114611e2157600080fd5b50565b611e2d81611d0b565b8114611e3857600080fd5b5056fea26469706673582212207e84088c1a308c561c8e224c891e13431901ec928b2d9f645d8a870c6f1ba3ad64736f6c63430008000033",
  "immutableReferences": {},
  "source": "// SPDX-License-Identifier: MIT\npragma solidity ^0.8.0;\n\nimport \"@openzeppelin/contracts/token/ERC20/ERC20.sol\";\nimport \"@openzeppelin/contracts/access/Ownable.sol\";\n\ninterface IWrappedToken {\n    event Burn(address indexed _sender, bytes32 indexed _to, uint256 _amount);\n    function burn(uint256 _amount, bytes32 _to) external;\n}\n\ncontract wAKT is IWrappedToken, ERC20, Ownable {\n\n       constructor(\n              string memory name,\n              string memory symbol\n       ) ERC20(name, symbol) {}\n\n       function burn(uint256 amount, bytes32 to) public override {\n              _burn(_msgSender(), amount);\n              emit Burn(_msgSender(), to, amount);\n       }\n\n       function mint(address account, uint256 amount) public onlyOwner {\n              _mint(account, amount);\n       }\n}",
  "sourcePath": "/Users/derekanderson/Projects/akash-bridge/contracts/Token.sol",
  "compiler": {
    "name": "solc",
    "version": "0.8.0+commit.c7dfd78e.Emscripten.clang"
  },
  "schemaVersion": "3.4.1",
  "updatedAt": "2021-07-06T17:47:41.421Z",
  "devdoc": {
    "kind": "dev",
    "methods": {
      "allowance(address,address)": {
        "details": "See {IERC20-allowance}."
      },
      "approve(address,uint256)": {
        "details": "See {IERC20-approve}. Requirements: - `spender` cannot be the zero address."
      },
      "balanceOf(address)": {
        "details": "See {IERC20-balanceOf}."
      },
      "decimals()": {
        "details": "Returns the number of decimals used to get its user representation. For example, if `decimals` equals `2`, a balance of `505` tokens should be displayed to a user as `5,05` (`505 / 10 ** 2`). Tokens usually opt for a value of 18, imitating the relationship between Ether and Wei. This is the value {ERC20} uses, unless this function is overridden; NOTE: This information is only used for _display_ purposes: it in no way affects any of the arithmetic of the contract, including {IERC20-balanceOf} and {IERC20-transfer}."
      },
      "decreaseAllowance(address,uint256)": {
        "details": "Atomically decreases the allowance granted to `spender` by the caller. This is an alternative to {approve} that can be used as a mitigation for problems described in {IERC20-approve}. Emits an {Approval} event indicating the updated allowance. Requirements: - `spender` cannot be the zero address. - `spender` must have allowance for the caller of at least `subtractedValue`."
      },
      "increaseAllowance(address,uint256)": {
        "details": "Atomically increases the allowance granted to `spender` by the caller. This is an alternative to {approve} that can be used as a mitigation for problems described in {IERC20-approve}. Emits an {Approval} event indicating the updated allowance. Requirements: - `spender` cannot be the zero address."
      },
      "name()": {
        "details": "Returns the name of the token."
      },
      "owner()": {
        "details": "Returns the address of the current owner."
      },
      "renounceOwnership()": {
        "details": "Leaves the contract without owner. It will not be possible to call `onlyOwner` functions anymore. Can only be called by the current owner. NOTE: Renouncing ownership will leave the contract without an owner, thereby removing any functionality that is only available to the owner."
      },
      "symbol()": {
        "details": "Returns the symbol of the token, usually a shorter version of the name."
      },
      "totalSupply()": {
        "details": "See {IERC20-totalSupply}."
      },
      "transfer(address,uint256)": {
        "details": "See {IERC20-transfer}. Requirements: - `recipient` cannot be the zero address. - the caller must have a balance of at least `amount`."
      },
      "transferFrom(address,address,uint256)": {
        "details": "See {IERC20-transferFrom}. Emits an {Approval} event indicating the updated allowance. This is not required by the EIP. See the note at the beginning of {ERC20}. Requirements: - `sender` and `recipient` cannot be the zero address. - `sender` must have a balance of at least `amount`. - the caller must have allowance for ``sender``'s tokens of at least `amount`."
      },
      "transferOwnership(address)": {
        "details": "Transfers ownership of the contract to a new account (`newOwner`). Can only be called by the current owner."
      }
    },
    "version": 1
  },
  "userdoc": {
    "kind": "user",
    "methods": {},
    "version": 1
  }
}